{
  "address": "0x4F03b9360F95ad7e443bb4E9147048f0F80967f8",
  "abi": [
    {
      "inputs": [],
      "name": "Utils__returnSigner__invalidContractSignature",
      "type": "error"
    },
    {
      "inputs": [],
      "name": "Utils__returnSigner__invalidSignature",
      "type": "error"
    },
    {
      "inputs": [
        {
          "internalType": "address",
          "name": "laserWallet",
          "type": "address"
        }
      ],
      "name": "getLaserState",
      "outputs": [
        {
          "internalType": "address",
          "name": "owner",
          "type": "address"
        },
        {
          "internalType": "address[]",
          "name": "guardians",
          "type": "address[]"
        },
        {
          "internalType": "address[]",
          "name": "recoveryOwners",
          "type": "address[]"
        },
        {
          "internalType": "address",
          "name": "singleton",
          "type": "address"
        },
        {
          "internalType": "bool",
          "name": "_isLocked",
          "type": "bool"
        },
        {
          "internalType": "uint256",
          "name": "configTimestamp",
          "type": "uint256"
        },
        {
          "internalType": "uint256",
          "name": "nonce",
          "type": "uint256"
        },
        {
          "internalType": "uint256",
          "name": "balance",
          "type": "uint256"
        },
        {
          "internalType": "address",
          "name": "oldOwner",
          "type": "address"
        }
      ],
      "stateMutability": "view",
      "type": "function"
    },
    {
      "inputs": [
        {
          "internalType": "bytes32",
          "name": "signedHash",
          "type": "bytes32"
        },
        {
          "internalType": "bytes",
          "name": "signatures",
          "type": "bytes"
        },
        {
          "internalType": "uint256",
          "name": "pos",
          "type": "uint256"
        }
      ],
      "name": "returnSigner",
      "outputs": [
        {
          "internalType": "address",
          "name": "signer",
          "type": "address"
        }
      ],
      "stateMutability": "view",
      "type": "function"
    },
    {
      "inputs": [
        {
          "internalType": "bytes",
          "name": "signatures",
          "type": "bytes"
        },
        {
          "internalType": "uint256",
          "name": "pos",
          "type": "uint256"
        }
      ],
      "name": "splitSigs",
      "outputs": [
        {
          "internalType": "bytes32",
          "name": "r",
          "type": "bytes32"
        },
        {
          "internalType": "bytes32",
          "name": "s",
          "type": "bytes32"
        },
        {
          "internalType": "uint8",
          "name": "v",
          "type": "uint8"
        }
      ],
      "stateMutability": "pure",
      "type": "function"
    }
  ],
  "transactionHash": "0x83e68cc65a887520b1460f7529e83be8b0057ef932df66a8ebcef5cabae7d7da",
  "args": [],
  "numDeployments": 1,
  "solcInputHash": "7eb8752ed2d5dba4b164cdb27ab6f43b",
  "bytecode": "0x608060405234801561001057600080fd5b50610a3d806100206000396000f3fe608060405234801561001057600080fd5b50600436106100415760003560e01c806316017b4714610046578063956ccd7614610076578063deb5530f146100c1575b600080fd5b61005961005436600461068d565b6100e9565b6040516001600160a01b0390911681526020015b60405180910390f35b6100a36100843660046106dd565b6041020160208101516040820151606090920151909260009190911a90565b60408051938452602084019290925260ff169082015260600161006d565b6100d46100cf36600461073a565b61033e565b60405161006d999897969594939291906107a2565b60008060008061011386866041020160208101516040820151606090920151909260009190911a90565b9194509250905060ff81166000036101e857604051630b135d3f60e11b81529293508392868301906001600160a01b03851690631626ba7e9061015c908b908590600401610812565b602060405180830381865afa158015610179573d6000803e3d6000fd5b505050506040513d601f19601f8201168201806040525081019061019d9190610868565b7bffffffffffffffffffffffffffffffffffffffffffffffffffffffff1916631626ba7e60e01b146101e2576040516340aec60f60e11b815260040160405180910390fd5b5061030d565b601e8160ff1611156102ad576040517f19457468657265756d205369676e6564204d6573736167653a0a3332000000006020820152603c8101889052600190605c016040516020818303038152906040528051906020012060048361024d91906108aa565b6040805160008152602081018083529390935260ff90911690820152606081018590526080810184905260a0016020604051602081039080840390855afa15801561029c573d6000803e3d6000fd5b50505060206040510351935061030d565b60408051600081526020810180835289905260ff831691810191909152606081018490526080810183905260019060a0016020604051602081039080840390855afa158015610300573d6000803e3d6000fd5b5050506020604051035193505b6001600160a01b0384166103345760405163b9bf1d7d60e01b815260040160405180910390fd5b5050509392505050565b600060608060008060008060008060008a9050806001600160a01b0316638da5cb5b6040518163ffffffff1660e01b8152600401602060405180830381865afa15801561038f573d6000803e3d6000fd5b505050506040513d601f19601f820116820180604052508101906103b391906108d7565b9950806001600160a01b0316630665f04b6040518163ffffffff1660e01b8152600401600060405180830381865afa1580156103f3573d6000803e3d6000fd5b505050506040513d6000823e601f3d908101601f1916820160405261041b91908101906108f4565b9850806001600160a01b031663c194a0466040518163ffffffff1660e01b8152600401600060405180830381865afa15801561045b573d6000803e3d6000fd5b505050506040513d6000823e601f3d908101601f1916820160405261048391908101906108f4565b9750806001600160a01b031663b62654fb6040518163ffffffff1660e01b8152600401602060405180830381865afa1580156104c3573d6000803e3d6000fd5b505050506040513d601f19601f820116820180604052508101906104e791906108d7565b9650806001600160a01b031663c3f909d46040518163ffffffff1660e01b8152600401606060405180830381865afa158015610527573d6000803e3d6000fd5b505050506040513d601f19601f8201168201806040525081019061054b91906109a6565b809450819850829750505050806001600160a01b031663affed0e06040518163ffffffff1660e01b8152600401602060405180830381865afa158015610595573d6000803e3d6000fd5b505050506040513d601f19601f820116820180604052508101906105b991906109ee565b93508a6001600160a01b0316319250509193959799909294969850565b634e487b7160e01b600052604160045260246000fd5b604051601f8201601f1916810167ffffffffffffffff81118282101715610615576106156105d6565b604052919050565b600082601f83011261062e57600080fd5b813567ffffffffffffffff811115610648576106486105d6565b61065b601f8201601f19166020016105ec565b81815284602083860101111561067057600080fd5b816020850160208301376000918101602001919091529392505050565b6000806000606084860312156106a257600080fd5b83359250602084013567ffffffffffffffff8111156106c057600080fd5b6106cc8682870161061d565b925050604084013590509250925092565b600080604083850312156106f057600080fd5b823567ffffffffffffffff81111561070757600080fd5b6107138582860161061d565b95602094909401359450505050565b6001600160a01b038116811461073757600080fd5b50565b60006020828403121561074c57600080fd5b813561075781610722565b9392505050565b600081518084526020808501945080840160005b838110156107975781516001600160a01b031687529582019590820190600101610772565b509495945050505050565b60006101206001600160a01b03808d1684528160208501526107c68285018d61075e565b915083820360408501526107da828c61075e565b99811660608501529715156080840152505060a081019490945260c084019290925260e0830152909116610100909101529392505050565b82815260006020604081840152835180604085015260005b818110156108465785810183015185820160600152820161082a565b506000606082860101526060601f19601f830116850101925050509392505050565b60006020828403121561087a57600080fd5b81517fffffffff000000000000000000000000000000000000000000000000000000008116811461075757600080fd5b60ff82811682821603908111156108d157634e487b7160e01b600052601160045260246000fd5b92915050565b6000602082840312156108e957600080fd5b815161075781610722565b6000602080838503121561090757600080fd5b825167ffffffffffffffff8082111561091f57600080fd5b818501915085601f83011261093357600080fd5b815181811115610945576109456105d6565b8060051b91506109568483016105ec565b818152918301840191848101908884111561097057600080fd5b938501935b8385101561099a578451925061098a83610722565b8282529385019390850190610975565b98975050505050505050565b6000806000606084860312156109bb57600080fd5b83519250602084015180151581146109d257600080fd5b60408501519092506109e381610722565b809150509250925092565b600060208284031215610a0057600080fd5b505191905056fea264697066735822122053d3ccc5de75c565ad24c92eb9ce1adc1e98c91670a974d84097c0d37edbd4cd64736f6c63430008100033",
  "devdoc": {
    "kind": "dev",
    "methods": {
      "returnSigner(bytes32,bytes,uint256)": {
        "params": {
          "pos": "Position of the signer.",
          "signatures": "Result of signing the has.",
          "signedHash": "The hash that was signed."
        },
        "returns": {
          "signer": "     Address that signed the hash."
        }
      },
      "splitSigs(bytes,uint256)": {
        "details": "Returns the r, s and v values of the signature.",
        "params": {
          "pos": "Which signature to read."
        }
      }
    },
    "title": "LaserHelper",
    "version": 1
  },
  "userdoc": {
    "kind": "user",
    "methods": {},
    "notice": "Allows to batch multiple requests in a single rpc call.",
    "version": 1
  },
  "storageLayout": {
    "storage": [],
    "types": null
  }
}