{
  "contracts/test/IncorrectMigrate.sol": {
    "IncorrectMigrate": {
      "abi": [
        {
          "inputs": [],
          "name": "nop",
          "outputs": [],
          "stateMutability": "nonpayable",
          "type": "function"
        }
      ],
      "devdoc": {
        "kind": "dev",
        "methods": {},
        "version": 1
      },
      "evm": {
        "bytecode": {
          "linkReferences": {},
          "object": "6080604052348015600f57600080fd5b50606580601d6000396000f3fe6080604052348015600f57600080fd5b506004361060285760003560e01c80632e9c58bb14602d575b600080fd5b00fea2646970667358221220d94e5ade9a46c9f4ecfc33128445b132579c746a4a0ed1200fa88045cab8cbe064736f6c63430008090033",
          "opcodes": "PUSH1 0x80 PUSH1 0x40 MSTORE CALLVALUE DUP1 ISZERO PUSH1 0xF JUMPI PUSH1 0x0 DUP1 REVERT JUMPDEST POP PUSH1 0x65 DUP1 PUSH1 0x1D PUSH1 0x0 CODECOPY PUSH1 0x0 RETURN INVALID PUSH1 0x80 PUSH1 0x40 MSTORE CALLVALUE DUP1 ISZERO PUSH1 0xF JUMPI PUSH1 0x0 DUP1 REVERT JUMPDEST POP PUSH1 0x4 CALLDATASIZE LT PUSH1 0x28 JUMPI PUSH1 0x0 CALLDATALOAD PUSH1 0xE0 SHR DUP1 PUSH4 0x2E9C58BB EQ PUSH1 0x2D JUMPI JUMPDEST PUSH1 0x0 DUP1 REVERT JUMPDEST STOP INVALID LOG2 PUSH5 0x6970667358 0x22 SLT KECCAK256 0xD9 0x4E GAS 0xDE SWAP11 CHAINID 0xC9 DELEGATECALL 0xEC 0xFC CALLER SLT DUP5 GASLIMIT 0xB1 ORIGIN JUMPI SWAP13 PUSH21 0x6A4A0ED1200FA88045CAB8CBE064736F6C63430008 MULMOD STOP CALLER "
        },
        "gasEstimates": {
          "creation": {
            "codeDepositCost": "20200",
            "executionCost": "75",
            "totalCost": "20275"
          },
          "external": {
            "nop()": "98"
          }
        },
        "methodIdentifiers": {
          "nop()": "2e9c58bb"
        }
      },
      "storageLayout": {
        "storage": [],
        "types": null
      },
      "userdoc": {
        "kind": "user",
        "methods": {},
        "version": 1
      }
    }
  }
}