{
  "contracts/libraries/LaserWalletStorage.sol": {
    "LaserWalletStorage": {
      "abi": [
        {
          "inputs": [],
          "name": "entryPoint",
          "outputs": [
            {
              "internalType": "address",
              "name": "",
              "type": "address"
            }
          ],
          "stateMutability": "view",
          "type": "function"
        },
        {
          "inputs": [],
          "name": "nonce",
          "outputs": [
            {
              "internalType": "uint256",
              "name": "",
              "type": "uint256"
            }
          ],
          "stateMutability": "view",
          "type": "function"
        },
        {
          "inputs": [],
          "name": "singleton",
          "outputs": [
            {
              "internalType": "address",
              "name": "",
              "type": "address"
            }
          ],
          "stateMutability": "view",
          "type": "function"
        }
      ],
      "devdoc": {
        "kind": "dev",
        "methods": {},
        "title": "LaserStorage - Storage layout of the Safe contracts to be used in libraries.",
        "version": 1
      },
      "evm": {
        "bytecode": {
          "linkReferences": {},
          "object": "608060405234801561001057600080fd5b5060f48061001f6000396000f3fe6080604052348015600f57600080fd5b5060043610603c5760003560e01c8063affed0e0146041578063b0d691fe14605c578063b62654fb14609f575b600080fd5b604960085481565b6040519081526020015b60405180910390f35b600154607b9073ffffffffffffffffffffffffffffffffffffffff1681565b60405173ffffffffffffffffffffffffffffffffffffffff90911681526020016053565b600054607b9073ffffffffffffffffffffffffffffffffffffffff168156fea264697066735822122077c35f2b8894369ce7be3dc9d98649b2dda81229883998af1f396e2e09e3cdeb64736f6c63430008090033",
          "opcodes": "PUSH1 0x80 PUSH1 0x40 MSTORE CALLVALUE DUP1 ISZERO PUSH2 0x10 JUMPI PUSH1 0x0 DUP1 REVERT JUMPDEST POP PUSH1 0xF4 DUP1 PUSH2 0x1F PUSH1 0x0 CODECOPY PUSH1 0x0 RETURN INVALID PUSH1 0x80 PUSH1 0x40 MSTORE CALLVALUE DUP1 ISZERO PUSH1 0xF JUMPI PUSH1 0x0 DUP1 REVERT JUMPDEST POP PUSH1 0x4 CALLDATASIZE LT PUSH1 0x3C JUMPI PUSH1 0x0 CALLDATALOAD PUSH1 0xE0 SHR DUP1 PUSH4 0xAFFED0E0 EQ PUSH1 0x41 JUMPI DUP1 PUSH4 0xB0D691FE EQ PUSH1 0x5C JUMPI DUP1 PUSH4 0xB62654FB EQ PUSH1 0x9F JUMPI JUMPDEST PUSH1 0x0 DUP1 REVERT JUMPDEST PUSH1 0x49 PUSH1 0x8 SLOAD DUP2 JUMP JUMPDEST PUSH1 0x40 MLOAD SWAP1 DUP2 MSTORE PUSH1 0x20 ADD JUMPDEST PUSH1 0x40 MLOAD DUP1 SWAP2 SUB SWAP1 RETURN JUMPDEST PUSH1 0x1 SLOAD PUSH1 0x7B SWAP1 PUSH20 0xFFFFFFFFFFFFFFFFFFFFFFFFFFFFFFFFFFFFFFFF AND DUP2 JUMP JUMPDEST PUSH1 0x40 MLOAD PUSH20 0xFFFFFFFFFFFFFFFFFFFFFFFFFFFFFFFFFFFFFFFF SWAP1 SWAP2 AND DUP2 MSTORE PUSH1 0x20 ADD PUSH1 0x53 JUMP JUMPDEST PUSH1 0x0 SLOAD PUSH1 0x7B SWAP1 PUSH20 0xFFFFFFFFFFFFFFFFFFFFFFFFFFFFFFFFFFFFFFFF AND DUP2 JUMP INVALID LOG2 PUSH5 0x6970667358 0x22 SLT KECCAK256 PUSH24 0xC35F2B8894369CE7BE3DC9D98649B2DDA81229883998AF1F CODECOPY PUSH15 0x2E09E3CDEB64736F6C634300080900 CALLER "
        },
        "gasEstimates": {
          "creation": {
            "codeDepositCost": "48800",
            "executionCost": "99",
            "totalCost": "48899"
          },
          "external": {
            "entryPoint()": "2313",
            "nonce()": "2262",
            "singleton()": "2335"
          }
        },
        "methodIdentifiers": {
          "entryPoint()": "b0d691fe",
          "nonce()": "affed0e0",
          "singleton()": "b62654fb"
        }
      },
      "storageLayout": {
        "storage": [
          {
            "astId": 4,
            "contract": "contracts/libraries/LaserWalletStorage.sol:LaserWalletStorage",
            "label": "singleton",
            "offset": 0,
            "slot": "0",
            "type": "t_address"
          },
          {
            "astId": 6,
            "contract": "contracts/libraries/LaserWalletStorage.sol:LaserWalletStorage",
            "label": "entryPoint",
            "offset": 0,
            "slot": "1",
            "type": "t_address"
          },
          {
            "astId": 10,
            "contract": "contracts/libraries/LaserWalletStorage.sol:LaserWalletStorage",
            "label": "owners",
            "offset": 0,
            "slot": "2",
            "type": "t_mapping(t_address,t_address)"
          },
          {
            "astId": 14,
            "contract": "contracts/libraries/LaserWalletStorage.sol:LaserWalletStorage",
            "label": "specialOwners",
            "offset": 0,
            "slot": "3",
            "type": "t_mapping(t_address,t_bool)"
          },
          {
            "astId": 16,
            "contract": "contracts/libraries/LaserWalletStorage.sol:LaserWalletStorage",
            "label": "ownerCount",
            "offset": 0,
            "slot": "4",
            "type": "t_uint256"
          },
          {
            "astId": 18,
            "contract": "contracts/libraries/LaserWalletStorage.sol:LaserWalletStorage",
            "label": "specialOwnerCount",
            "offset": 0,
            "slot": "5",
            "type": "t_uint256"
          },
          {
            "astId": 20,
            "contract": "contracts/libraries/LaserWalletStorage.sol:LaserWalletStorage",
            "label": "threshold",
            "offset": 0,
            "slot": "6",
            "type": "t_uint256"
          },
          {
            "astId": 22,
            "contract": "contracts/libraries/LaserWalletStorage.sol:LaserWalletStorage",
            "label": "ethSpendingLimit",
            "offset": 0,
            "slot": "7",
            "type": "t_uint256"
          },
          {
            "astId": 24,
            "contract": "contracts/libraries/LaserWalletStorage.sol:LaserWalletStorage",
            "label": "nonce",
            "offset": 0,
            "slot": "8",
            "type": "t_uint256"
          }
        ],
        "types": {
          "t_address": {
            "encoding": "inplace",
            "label": "address",
            "numberOfBytes": "20"
          },
          "t_bool": {
            "encoding": "inplace",
            "label": "bool",
            "numberOfBytes": "1"
          },
          "t_mapping(t_address,t_address)": {
            "encoding": "mapping",
            "key": "t_address",
            "label": "mapping(address => address)",
            "numberOfBytes": "32",
            "value": "t_address"
          },
          "t_mapping(t_address,t_bool)": {
            "encoding": "mapping",
            "key": "t_address",
            "label": "mapping(address => bool)",
            "numberOfBytes": "32",
            "value": "t_bool"
          },
          "t_uint256": {
            "encoding": "inplace",
            "label": "uint256",
            "numberOfBytes": "32"
          }
        }
      },
      "userdoc": {
        "kind": "user",
        "methods": {},
        "version": 1
      }
    }
  }
}