{
  "_format": "hh-sol-artifact-1",
  "contractName": "Caller",
  "sourceName": "contracts/test/Caller.sol",
  "abi": [
    {
      "inputs": [
        {
          "internalType": "address",
          "name": "_address",
          "type": "address"
        },
        {
          "internalType": "uint256",
          "name": "_amount",
          "type": "uint256"
        },
        {
          "internalType": "bytes",
          "name": "data",
          "type": "bytes"
        }
      ],
      "name": "_call",
      "outputs": [],
      "stateMutability": "nonpayable",
      "type": "function"
    },
    {
      "stateMutability": "payable",
      "type": "receive"
    }
  ],
  "bytecode": "0x608060405234801561001057600080fd5b506102a2806100206000396000f3fe6080604052600436106100225760003560e01c8063734cd1e21461002e57600080fd5b3661002957005b600080fd5b34801561003a57600080fd5b5061004e61004936600461014b565b610050565b005b8147101561008b5760405162461bcd60e51b815260206004820152600360248201526204e6f760ec1b60448201526064015b60405180910390fd5b60008373ffffffffffffffffffffffffffffffffffffffff1683836040516100b39190610231565b60006040518083038185875af1925050503d80600081146100f0576040519150601f19603f3d011682016040523d82523d6000602084013e6100f5565b606091505b505090508061012f5760405162461bcd60e51b81526004016100829060208082526004908201526306e6f6f760e41b604082015260600190565b50505050565b634e487b7160e01b600052604160045260246000fd5b60008060006060848603121561016057600080fd5b833573ffffffffffffffffffffffffffffffffffffffff8116811461018457600080fd5b925060208401359150604084013567ffffffffffffffff808211156101a857600080fd5b818601915086601f8301126101bc57600080fd5b8135818111156101ce576101ce610135565b604051601f8201601f19908116603f011681019083821181831017156101f6576101f6610135565b8160405282815289602084870101111561020f57600080fd5b8260208601602083013760006020848301015280955050505050509250925092565b6000825160005b818110156102525760208186018101518583015201610238565b81811115610261576000828501525b50919091019291505056fea2646970667358221220774baf49f65478b11bb4b947f16bdaf97729bdd709647048f91014b86e298a7a64736f6c63430008090033",
  "linkReferences": {},
  "deployedLinkReferences": {}
}