{
  "_format": "hh-sol-artifact-1",
  "contractName": "TokenCaller",
  "sourceName": "contracts/test/TokenCaller.sol",
  "abi": [
    {
      "inputs": [
        {
          "internalType": "address",
          "name": "_contract",
          "type": "address"
        }
      ],
      "name": "checkERC1155",
      "outputs": [
        {
          "internalType": "bytes4",
          "name": "result",
          "type": "bytes4"
        }
      ],
      "stateMutability": "view",
      "type": "function"
    },
    {
      "inputs": [
        {
          "internalType": "address",
          "name": "_contract",
          "type": "address"
        }
      ],
      "name": "checkERC115Batch",
      "outputs": [
        {
          "internalType": "bytes4",
          "name": "result",
          "type": "bytes4"
        }
      ],
      "stateMutability": "view",
      "type": "function"
    },
    {
      "inputs": [
        {
          "internalType": "address",
          "name": "_contract",
          "type": "address"
        },
        {
          "internalType": "bytes4",
          "name": "_interfaceId",
          "type": "bytes4"
        }
      ],
      "name": "checkERC165",
      "outputs": [
        {
          "internalType": "bool",
          "name": "result",
          "type": "bool"
        }
      ],
      "stateMutability": "view",
      "type": "function"
    },
    {
      "inputs": [
        {
          "internalType": "address",
          "name": "_contract",
          "type": "address"
        }
      ],
      "name": "checkERC721",
      "outputs": [
        {
          "internalType": "bytes4",
          "name": "result",
          "type": "bytes4"
        }
      ],
      "stateMutability": "view",
      "type": "function"
    }
  ],
  "bytecode": "0x608060405234801561001057600080fd5b50610530806100206000396000f3fe608060405234801561001057600080fd5b506004361061004c5760003560e01c806331d199691461005157806341005a921461008257806366ca6a87146100a5578063cf3d0f68146100b8575b600080fd5b61006461005f3660046102fe565b6100cb565b6040516001600160e01b031990911681526020015b60405180910390f35b610095610090366004610332565b610159565b6040519015158152602001610079565b6100646100b33660046102fe565b6101dd565b6100646100c63660046102fe565b6102ad565b60405163f23a6e6160e01b815260009081906001600160a01b0384169063f23a6e6190610102908490819081908190600401610369565b60206040518083038186803b15801561011a57600080fd5b505afa15801561012e573d6000803e3d6000fd5b505050506040513d601f19601f8201168201806040525081019061015291906103ba565b9392505050565b6040516301ffc9a760e01b81526001600160e01b0319821660048201526000906001600160a01b038416906301ffc9a79060240160206040518083038186803b1580156101a557600080fd5b505afa1580156101b9573d6000803e3d6000fd5b505050506040513d601f19601f8201168201806040525081019061015291906103d7565b6040805160018082528183019092526000918291829160208083019080368337019050509050600081600081518110610218576102186103f9565b602090810291909101015260405163bc197c8160e01b81526001600160a01b0385169063bc197c819061025590859081908690819060040161044a565b60206040518083038186803b15801561026d57600080fd5b505afa158015610281573d6000803e3d6000fd5b505050506040513d601f19601f820116820180604052508101906102a591906103ba565b949350505050565b604051630a85bd0160e11b815260009081906001600160a01b0384169063150b7a0290610102908490819081906004016104b0565b80356001600160a01b03811681146102f957600080fd5b919050565b60006020828403121561031057600080fd5b610152826102e2565b6001600160e01b03198116811461032f57600080fd5b50565b6000806040838503121561034557600080fd5b61034e836102e2565b9150602083013561035e81610319565b809150509250929050565b60006001600160a01b03808716835280861660208401525083604083015282606083015260a060808301526103b060a083016002815261060f60f31b602082015260400190565b9695505050505050565b6000602082840312156103cc57600080fd5b815161015281610319565b6000602082840312156103e957600080fd5b8151801515811461015257600080fd5b634e487b7160e01b600052603260045260246000fd5b600081518084526020808501945080840160005b8381101561043f57815187529582019590820190600101610423565b509495945050505050565b60006001600160a01b03808716835280861660208401525060a0604083015261047660a083018561040f565b8281036060840152610488818561040f565b83810360808501526002815261060f60f31b6020820152905060408101979650505050505050565b60006001600160a01b038086168352808516602084015250826040830152608060608301526104f1608083016002815261060f60f31b602082015260400190565b9594505050505056fea26469706673582212209a33a818d8eb17572adc0b548b8028f7527113e9d593fe1515b2fcd25b9a722664736f6c63430008090033",
  "linkReferences": {},
  "deployedLinkReferences": {}
}