{
  "_format": "hh-sol-artifact-1",
  "contractName": "IncorrectMigrate",
  "sourceName": "contracts/test/IncorrectMigrate.sol",
  "abi": [
    {
      "inputs": [],
      "name": "nop",
      "outputs": [],
      "stateMutability": "nonpayable",
      "type": "function"
    }
  ],
  "bytecode": "0x6080604052348015600f57600080fd5b50606580601d6000396000f3fe6080604052348015600f57600080fd5b506004361060285760003560e01c80632e9c58bb14602d575b600080fd5b00fea2646970667358221220d94e5ade9a46c9f4ecfc33128445b132579c746a4a0ed1200fa88045cab8cbe064736f6c63430008090033",
  "linkReferences": {},
  "deployedLinkReferences": {}
}