{
  "address": "0xFb41dbf20eC450C3a5fFE82ef410BaDe83790Cb1",
  "abi": [
    {
      "inputs": [
        {
          "internalType": "address",
          "name": "_singleton",
          "type": "address"
        }
      ],
      "stateMutability": "nonpayable",
      "type": "constructor"
    },
    {
      "inputs": [],
      "name": "LF__constructor__invalidSingleton",
      "type": "error"
    },
    {
      "inputs": [],
      "name": "LF__createProxy__creationFailed",
      "type": "error"
    },
    {
      "inputs": [],
      "name": "LF__deployProxy__create2Failed",
      "type": "error"
    },
    {
      "anonymous": false,
      "inputs": [
        {
          "indexed": false,
          "internalType": "address",
          "name": "laser",
          "type": "address"
        }
      ],
      "name": "LaserCreated",
      "type": "event"
    },
    {
      "inputs": [
        {
          "internalType": "bytes",
          "name": "initializer",
          "type": "bytes"
        },
        {
          "internalType": "uint256",
          "name": "saltNonce",
          "type": "uint256"
        }
      ],
      "name": "createProxy",
      "outputs": [
        {
          "internalType": "contract LaserProxy",
          "name": "proxy",
          "type": "address"
        }
      ],
      "stateMutability": "nonpayable",
      "type": "function"
    },
    {
      "inputs": [
        {
          "internalType": "bytes",
          "name": "initializer",
          "type": "bytes"
        },
        {
          "internalType": "uint256",
          "name": "saltNonce",
          "type": "uint256"
        }
      ],
      "name": "preComputeAddress",
      "outputs": [
        {
          "internalType": "address",
          "name": "",
          "type": "address"
        }
      ],
      "stateMutability": "view",
      "type": "function"
    },
    {
      "inputs": [],
      "name": "proxyCreationCode",
      "outputs": [
        {
          "internalType": "bytes",
          "name": "",
          "type": "bytes"
        }
      ],
      "stateMutability": "pure",
      "type": "function"
    },
    {
      "inputs": [],
      "name": "proxyRuntimeCode",
      "outputs": [
        {
          "internalType": "bytes",
          "name": "",
          "type": "bytes"
        }
      ],
      "stateMutability": "pure",
      "type": "function"
    },
    {
      "inputs": [],
      "name": "singleton",
      "outputs": [
        {
          "internalType": "address",
          "name": "",
          "type": "address"
        }
      ],
      "stateMutability": "view",
      "type": "function"
    }
  ],
  "transactionHash": "0x716a533dd84a1fd9568298210b377d30448a496e03e1d8fddfa748b7484bc278",
  "args": [
    "0xc0c50cD7b8bD3dd34768418D6Debfb3Cd246E1fA"
  ],
  "numDeployments": 1,
  "solcInputHash": "7eb8752ed2d5dba4b164cdb27ab6f43b",
  "bytecode": "0x60a060405234801561001057600080fd5b506040516107ee3803806107ee83398101604081905261002f916100cc565b6040516301ffc9a760e01b815263ae029e0b60e01b60048201526001600160a01b038216906301ffc9a790602401602060405180830381865afa15801561007a573d6000803e3d6000fd5b505050506040513d601f19601f8201168201806040525081019061009e91906100fc565b6100bb57604051630ddf64f360e31b815260040160405180910390fd5b6001600160a01b031660805261011e565b6000602082840312156100de57600080fd5b81516001600160a01b03811681146100f557600080fd5b9392505050565b60006020828403121561010e57600080fd5b815180151581146100f557600080fd5b6080516106a86101466000396000818160be015281816101c2015261032201526106a86000f3fe608060405234801561001057600080fd5b50600436106100675760003560e01c8063addacc0f11610050578063addacc0f146100b1578063b62654fb146100b9578063dff8028a146100e057600080fd5b8063393f2db81461006c57806353e5d9351461009c575b600080fd5b61007f61007a3660046103c6565b6100f3565b6040516001600160a01b0390911681526020015b60405180910390f35b6100a4610174565b604051610093919061049f565b6100a461019e565b61007f7f000000000000000000000000000000000000000000000000000000000000000081565b61007f6100ee3660046103c6565b6101b0565b60006100ff83836102ae565b905060008060008551602087016000865af19050806101315760405163356b2b3f60e01b815260040160405180910390fd5b6040516001600160a01b03831681527ff812ba9590f96dc11ce0bca0544c60f43047273e3bdd93bf8a820279d35442009060200160405180910390a15092915050565b60606040518060200161018690610397565b601f1982820381018352601f90910116604052919050565b606060405180602001610186906103a4565b6000806101bb610174565b90506000817f00000000000000000000000000000000000000000000000000000000000000006001600160a01b03166040516020016101fb9291906104d2565b60408051808303601f1901815282825287516020988901208884015282820196909652805180830382018152606080840183528151918901919091208751978901979097207fff0000000000000000000000000000000000000000000000000000000000000060808501523090911b6bffffffffffffffffffffffff19166081840152609583019690965260b5808301969096528051808303909601865260d59091019052505081519190920120919050565b6000808380519060200120836040516020016102d4929190918252602082015260400190565b6040516020818303038152906040528051906020012090506000604051806020016102fe90610397565b601f1982820381018352601f90910116604081905261034b91906001600160a01b037f000000000000000000000000000000000000000000000000000000000000000016906020016104d2565b6040516020818303038152906040529050818151826020016000f592506001600160a01b03831661038f5760405163348a593560e01b815260040160405180910390fd5b505092915050565b610108806104f583390190565b6076806105fd83390190565b634e487b7160e01b600052604160045260246000fd5b600080604083850312156103d957600080fd5b823567ffffffffffffffff808211156103f157600080fd5b818501915085601f83011261040557600080fd5b813581811115610417576104176103b0565b604051601f8201601f19908116603f0116810190838211818310171561043f5761043f6103b0565b8160405282815288602084870101111561045857600080fd5b826020860160208301376000602093820184015298969091013596505050505050565b60005b8381101561049657818101518382015260200161047e565b50506000910152565b60208152600082518060208401526104be81604085016020870161047b565b601f01601f19169190910160400192915050565b600083516104e481846020880161047b565b919091019182525060200191905056fe608060405234801561001057600080fd5b5060405161010838038061010883398101604081905261002f91610054565b600080546001600160a01b0319166001600160a01b0392909216919091179055610084565b60006020828403121561006657600080fd5b81516001600160a01b038116811461007d57600080fd5b9392505050565b6076806100926000396000f3fe60806040526000805473ffffffffffffffffffffffffffffffffffffffff169036908037600080366000845af43d6000803e80603a573d6000fd5b503d6000f3fea2646970667358221220ff94f79275dde665b954e24431abc1017d653e58c3fec5e0c388addab2a9d42d64736f6c6343000810003360806040526000805473ffffffffffffffffffffffffffffffffffffffff169036908037600080366000845af43d6000803e80603a573d6000fd5b503d6000f3fea2646970667358221220ff94f79275dde665b954e24431abc1017d653e58c3fec5e0c388addab2a9d42d64736f6c63430008100033a264697066735822122088032979056a197c9e5a38792d45a90666fe43a4f2ef800cbd9de4b1498362f464736f6c63430008100033",
  "devdoc": {
    "kind": "dev",
    "methods": {
      "constructor": {
        "params": {
          "_singleton": "Base contract."
        }
      },
      "createProxy(bytes,uint256)": {
        "details": "Allows to create new proxy contact and execute a message call to the new proxy within one transaction.",
        "params": {
          "initializer": "Payload for message call sent to new proxy contract.",
          "saltNonce": "Nonce that will be used to generate the salt to calculate the address of the new proxy contract."
        }
      },
      "preComputeAddress(bytes,uint256)": {
        "details": "Precomputes the address of a proxy that is created through 'create2'."
      },
      "proxyCreationCode()": {
        "details": "Allows to retrieve the creation code used for the Proxy deployment. With this it is easily possible to calculate predicted address."
      },
      "proxyRuntimeCode()": {
        "details": "Allows to retrieve the runtime code of a deployed Proxy. This can be used to check that the expected Proxy was deployed."
      }
    },
    "title": "LaserFactory",
    "version": 1
  },
  "userdoc": {
    "kind": "user",
    "methods": {},
    "notice": "Factory that creates new Laser proxies, and has helper methods.",
    "version": 1
  },
  "storageLayout": {
    "storage": [],
    "types": null
  }
}