{
  "address": "0x31Ac63D12c0cD37Af8E7B5d570a17292BC604f7a",
  "abi": [
    {
      "inputs": [
        {
          "internalType": "address",
          "name": "_singleton",
          "type": "address"
        }
      ],
      "stateMutability": "nonpayable",
      "type": "constructor"
    },
    {
      "inputs": [],
      "name": "ProxyFactory__constructor__invalidSingleton",
      "type": "error"
    },
    {
      "anonymous": false,
      "inputs": [
        {
          "indexed": false,
          "internalType": "address",
          "name": "proxy",
          "type": "address"
        },
        {
          "indexed": false,
          "internalType": "address",
          "name": "singleton",
          "type": "address"
        }
      ],
      "name": "ProxyCreation",
      "type": "event"
    },
    {
      "inputs": [
        {
          "internalType": "bytes",
          "name": "data",
          "type": "bytes"
        }
      ],
      "name": "createProxy",
      "outputs": [
        {
          "internalType": "contract LaserProxy",
          "name": "proxy",
          "type": "address"
        }
      ],
      "stateMutability": "nonpayable",
      "type": "function"
    },
    {
      "inputs": [
        {
          "internalType": "bytes",
          "name": "initializer",
          "type": "bytes"
        },
        {
          "internalType": "uint256",
          "name": "saltNonce",
          "type": "uint256"
        }
      ],
      "name": "createProxyWithNonce",
      "outputs": [
        {
          "internalType": "contract LaserProxy",
          "name": "proxy",
          "type": "address"
        }
      ],
      "stateMutability": "nonpayable",
      "type": "function"
    },
    {
      "inputs": [
        {
          "internalType": "bytes",
          "name": "initializer",
          "type": "bytes"
        },
        {
          "internalType": "uint256",
          "name": "saltNonce",
          "type": "uint256"
        }
      ],
      "name": "preComputeAddress",
      "outputs": [
        {
          "internalType": "address",
          "name": "",
          "type": "address"
        }
      ],
      "stateMutability": "view",
      "type": "function"
    },
    {
      "inputs": [],
      "name": "proxyCreationCode",
      "outputs": [
        {
          "internalType": "bytes",
          "name": "",
          "type": "bytes"
        }
      ],
      "stateMutability": "pure",
      "type": "function"
    },
    {
      "inputs": [],
      "name": "proxyRuntimeCode",
      "outputs": [
        {
          "internalType": "bytes",
          "name": "",
          "type": "bytes"
        }
      ],
      "stateMutability": "pure",
      "type": "function"
    },
    {
      "inputs": [],
      "name": "singleton",
      "outputs": [
        {
          "internalType": "address",
          "name": "",
          "type": "address"
        }
      ],
      "stateMutability": "view",
      "type": "function"
    }
  ],
  "transactionHash": "0xafc37955c30985663ed37b8e7897e61c4581afaa785af5d8d3e00aa712a2eabf",
  "args": [
    "0xabC9345D6b5d4314023d2ac52D149A3b82550b8C"
  ],
  "numDeployments": 1,
  "solcInputHash": "2d6487914289d8d0b4144ebf1095c0e0",
  "bytecode": "0x60a060405234801561001057600080fd5b506040516109be3803806109be83398101604081905261002f916100cc565b6040516301ffc9a760e01b815263ae029e0b60e01b60048201526001600160a01b038216906301ffc9a790602401602060405180830381865afa15801561007a573d6000803e3d6000fd5b505050506040513d601f19601f8201168201806040525081019061009e91906100fc565b6100bb576040516323a9bee360e11b815260040160405180910390fd5b6001600160a01b031660805261011e565b6000602082840312156100de57600080fd5b81516001600160a01b03811681146100f557600080fd5b9392505050565b60006020828403121561010e57600080fd5b815180151581146100f557600080fd5b60805161086361015b6000396000818160e001528181610182015281816101dc0152818161026b015281816102e4015261044401526108636000f3fe608060405234801561001057600080fd5b50600436106100725760003560e01c8063addacc0f11610050578063addacc0f146100d3578063b62654fb146100db578063dff8028a1461010257600080fd5b806353e5d93514610077578063705ce64a146100955780638f295d59146100c0575b600080fd5b61007f610115565b60405161008c9190610535565b60405180910390f35b6100a86100a336600461060b565b61013f565b6040516001600160a01b03909116815260200161008c565b6100a86100ce366004610650565b6101d8565b61007f6102c0565b6100a87f000000000000000000000000000000000000000000000000000000000000000081565b6100a861011036600461060b565b6102d2565b606060405180602001610127906104ec565b601f1982820381018352601f90910116604052919050565b600061014b83836103d0565b83519091501561016f5760008060008551602087016000865af10361016f57600080fd5b604080516001600160a01b0380841682527f00000000000000000000000000000000000000000000000000000000000000001660208201527f4f51faf6c4561ff95f067657e43439f0f856d97c04d9ec9070a6199ad418e235910160405180910390a192915050565b60007f0000000000000000000000000000000000000000000000000000000000000000604051610207906104ec565b6001600160a01b039091168152602001604051809103906000f080158015610233573d6000803e3d6000fd5b508251909150156102585760008060008451602086016000865af10361025857600080fd5b604080516001600160a01b0380841682527f00000000000000000000000000000000000000000000000000000000000000001660208201527f4f51faf6c4561ff95f067657e43439f0f856d97c04d9ec9070a6199ad418e235910160405180910390a1919050565b606060405180602001610127906104f9565b6000806102dd610115565b90506000817f00000000000000000000000000000000000000000000000000000000000000006001600160a01b031660405160200161031d92919061068d565b60408051808303601f1901815282825287516020988901208884015282820196909652805180830382018152606080840183528151918901919091208751978901979097207fff0000000000000000000000000000000000000000000000000000000000000060808501523090911b6bffffffffffffffffffffffff19166081840152609583019690965260b5808301969096528051808303909601865260d59091019052505081519190920120919050565b6000808380519060200120836040516020016103f6929190918252602082015260400190565b604051602081830303815290604052805190602001209050600060405180602001610420906104ec565b601f1982820381018352601f90910116604081905261046d91906001600160a01b037f0000000000000000000000000000000000000000000000000000000000000000169060200161068d565b6040516020818303038152906040529050818151826020016000f592506001600160a01b0383166104e45760405162461bcd60e51b815260206004820152601360248201527f437265617465322063616c6c206661696c656400000000000000000000000000604482015260640160405180910390fd5b505092915050565b610108806106b083390190565b6076806107b883390190565b60005b83811015610520578181015183820152602001610508565b8381111561052f576000848401525b50505050565b6020815260008251806020840152610554816040850160208701610505565b601f01601f19169190910160400192915050565b634e487b7160e01b600052604160045260246000fd5b600082601f83011261058f57600080fd5b813567ffffffffffffffff808211156105aa576105aa610568565b604051601f8301601f19908116603f011681019082821181831017156105d2576105d2610568565b816040528381528660208588010111156105eb57600080fd5b836020870160208301376000602085830101528094505050505092915050565b6000806040838503121561061e57600080fd5b823567ffffffffffffffff81111561063557600080fd5b6106418582860161057e565b95602094909401359450505050565b60006020828403121561066257600080fd5b813567ffffffffffffffff81111561067957600080fd5b6106858482850161057e565b949350505050565b6000835161069f818460208801610505565b919091019182525060200191905056fe608060405234801561001057600080fd5b5060405161010838038061010883398101604081905261002f91610054565b600080546001600160a01b0319166001600160a01b0392909216919091179055610084565b60006020828403121561006657600080fd5b81516001600160a01b038116811461007d57600080fd5b9392505050565b6076806100926000396000f3fe60806040526000805473ffffffffffffffffffffffffffffffffffffffff169036908037600080366000845af43d6000803e80603a573d6000fd5b503d6000f3fea2646970667358221220fad0d0a619d5ff0dc2cb2b097b800bc9485e6978401feae38e1d8eb70eaccb0f64736f6c634300080f003360806040526000805473ffffffffffffffffffffffffffffffffffffffff169036908037600080366000845af43d6000803e80603a573d6000fd5b503d6000f3fea2646970667358221220fad0d0a619d5ff0dc2cb2b097b800bc9485e6978401feae38e1d8eb70eaccb0f64736f6c634300080f0033a26469706673582212200f28cdbaca9a528705ada9fa4376ce8b7e975261a06d860713838808a5994d9c64736f6c634300080f0033",
  "devdoc": {
    "errors": {
      "ProxyFactory__constructor__invalidSingleton()": [
        {
          "details": "constructor() custom error."
        }
      ]
    },
    "kind": "dev",
    "methods": {
      "constructor": {
        "params": {
          "_singleton": "Master copy of the proxy."
        }
      },
      "createProxy(bytes)": {
        "details": "Allows to create new proxy contact and execute a message call to the new proxy within one transaction.",
        "params": {
          "data": "Payload for message call sent to new proxy contract."
        }
      },
      "createProxyWithNonce(bytes,uint256)": {
        "details": "Allows to create new proxy contact and execute a message call to the new proxy within one transaction.",
        "params": {
          "initializer": "Payload for message call sent to new proxy contract.",
          "saltNonce": "Nonce that will be used to generate the salt to calculate the address of the new proxy contract."
        }
      },
      "preComputeAddress(bytes,uint256)": {
        "details": "Precomputes the address of a proxy that is created through 'create2'."
      },
      "proxyCreationCode()": {
        "details": "Allows to retrieve the creation code used for the Proxy deployment. With this it is easily possible to calculate predicted address."
      },
      "proxyRuntimeCode()": {
        "details": "Allows to retrieve the runtime code of a deployed Proxy. This can be used to check that the expected Proxy was deployed."
      }
    },
    "title": "Proxy Factory - Allows to create new proxy contact and execute a message call to the new proxy within one transaction.",
    "version": 1
  },
  "userdoc": {
    "kind": "user",
    "methods": {},
    "version": 1
  },
  "storageLayout": {
    "storage": [],
    "types": null
  }
}